{
  "contractName": "SongRatingContract",
  "abi": [
    {
      "anonymous": false,
      "inputs": [
        {
          "indexed": true,
          "internalType": "uint256",
          "name": "songId",
          "type": "uint256"
        },
        {
          "indexed": true,
          "internalType": "address",
          "name": "user",
          "type": "address"
        },
        {
          "indexed": false,
          "internalType": "string",
          "name": "feedback",
          "type": "string"
        }
      ],
      "name": "FeedbackProvided",
      "type": "event"
    },
    {
      "anonymous": false,
      "inputs": [
        {
          "indexed": true,
          "internalType": "uint256",
          "name": "songId",
          "type": "uint256"
        },
        {
          "indexed": true,
          "internalType": "address",
          "name": "user",
          "type": "address"
        },
        {
          "indexed": false,
          "internalType": "uint256",
          "name": "rating",
          "type": "uint256"
        }
      ],
      "name": "SongRated",
      "type": "event"
    },
    {
      "inputs": [
        {
          "internalType": "uint256",
          "name": "",
          "type": "uint256"
        },
        {
          "internalType": "address",
          "name": "",
          "type": "address"
        }
      ],
      "name": "hasRated",
      "outputs": [
        {
          "internalType": "bool",
          "name": "",
          "type": "bool"
        }
      ],
      "stateMutability": "view",
      "type": "function"
    },
    {
      "inputs": [
        {
          "internalType": "uint256",
          "name": "",
          "type": "uint256"
        },
        {
          "internalType": "address",
          "name": "",
          "type": "address"
        }
      ],
      "name": "ratings",
      "outputs": [
        {
          "internalType": "uint256",
          "name": "rating",
          "type": "uint256"
        },
        {
          "internalType": "string",
          "name": "feedback",
          "type": "string"
        }
      ],
      "stateMutability": "view",
      "type": "function"
    },
    {
      "inputs": [
        {
          "internalType": "uint256",
          "name": "",
          "type": "uint256"
        },
        {
          "internalType": "uint256",
          "name": "",
          "type": "uint256"
        }
      ],
      "name": "songRaters",
      "outputs": [
        {
          "internalType": "address",
          "name": "",
          "type": "address"
        }
      ],
      "stateMutability": "view",
      "type": "function"
    },
    {
      "inputs": [
        {
          "internalType": "uint256",
          "name": "songId",
          "type": "uint256"
        },
        {
          "internalType": "uint256",
          "name": "rating",
          "type": "uint256"
        }
      ],
      "name": "rateSong",
      "outputs": [],
      "stateMutability": "nonpayable",
      "type": "function"
    },
    {
      "inputs": [
        {
          "internalType": "uint256",
          "name": "songId",
          "type": "uint256"
        },
        {
          "internalType": "string",
          "name": "feedback",
          "type": "string"
        }
      ],
      "name": "provideFeedback",
      "outputs": [],
      "stateMutability": "nonpayable",
      "type": "function"
    },
    {
      "inputs": [
        {
          "internalType": "uint256",
          "name": "songId",
          "type": "uint256"
        }
      ],
      "name": "calculateAverageRating",
      "outputs": [
        {
          "internalType": "uint256",
          "name": "",
          "type": "uint256"
        }
      ],
      "stateMutability": "view",
      "type": "function"
    }
  ],
  "bytecode": "0x608060405234801561000f575f80fd5b50610fcf8061001d5f395ff3fe608060405234801561000f575f80fd5b5060043610610060575f3560e01c806302c0dee5146100645780634bab0585146100945780637520ca8c146100c557806376454486146100f5578063a48f50e114610125578063dc76fb6614610141575b5f80fd5b61007e600480360381019061007991906106ed565b61015d565b60405161008b9190610727565b60405180910390f35b6100ae60048036038101906100a9919061079a565b610277565b6040516100bc929190610862565b60405180910390f35b6100df60048036038101906100da9190610890565b610327565b6040516100ec91906108dd565b60405180910390f35b61010f600480360381019061010a919061079a565b61036f565b60405161011c9190610910565b60405180910390f35b61013f600480360381019061013a9190610890565b610399565b005b61015b60048036038101906101569190610a55565b6105fa565b005b5f805f90505f8060025f8681526020019081526020015f2090505f5b818054905081101561024c575f805f8881526020019081526020015f205f8484815481106101aa576101a9610aaf565b5b905f5260205f20015f9054906101000a900473ffffffffffffffffffffffffffffffffffffffff1673ffffffffffffffffffffffffffffffffffffffff1673ffffffffffffffffffffffffffffffffffffffff1681526020019081526020015f2090505f815f0154111561023857805f0154856102279190610b09565b9450838061023490610b3c565b9450505b50808061024490610b3c565b915050610179565b505f82111561026b5781836102619190610bb0565b9350505050610272565b5f93505050505b919050565b5f602052815f5260405f20602052805f5260405f205f9150915050805f0154908060010180546102a690610c0d565b80601f01602080910402602001604051908101604052809291908181526020018280546102d290610c0d565b801561031d5780601f106102f45761010080835404028352916020019161031d565b820191905f5260205f20905b81548152906001019060200180831161030057829003601f168201915b5050505050905082565b6002602052815f5260405f208181548110610340575f80fd5b905f5260205f20015f915091509054906101000a900473ffffffffffffffffffffffffffffffffffffffff1681565b6001602052815f5260405f20602052805f5260405f205f915091509054906101000a900460ff1681565b60025f8381526020019081526020015f2033908060018154018082558091505060019003905f5260205f20015f9091909190916101000a81548173ffffffffffffffffffffffffffffffffffffffff021916908373ffffffffffffffffffffffffffffffffffffffff1602179055506001811015801561041a575060058111155b610459576040517f08c379a000000000000000000000000000000000000000000000000000000000815260040161045090610c87565b60405180910390fd5b60015f8381526020019081526020015f205f3373ffffffffffffffffffffffffffffffffffffffff1673ffffffffffffffffffffffffffffffffffffffff1681526020019081526020015f205f9054906101000a900460ff16156104f2576040517f08c379a00000000000000000000000000000000000000000000000000000000081526004016104e990610cef565b60405180910390fd5b805f808481526020019081526020015f205f3373ffffffffffffffffffffffffffffffffffffffff1673ffffffffffffffffffffffffffffffffffffffff1681526020019081526020015f205f01819055506001805f8481526020019081526020015f205f3373ffffffffffffffffffffffffffffffffffffffff1673ffffffffffffffffffffffffffffffffffffffff1681526020019081526020015f205f6101000a81548160ff0219169083151502179055503373ffffffffffffffffffffffffffffffffffffffff16827f4688bab1985c56a10427b55e41f3a3a13f47f811720083ce7a361484a02eb331836040516105ee9190610727565b60405180910390a35050565b805f808481526020019081526020015f205f3373ffffffffffffffffffffffffffffffffffffffff1673ffffffffffffffffffffffffffffffffffffffff1681526020019081526020015f2060010190816106559190610eaa565b503373ffffffffffffffffffffffffffffffffffffffff16827f1733a18db64c30e73e01a110e09f8a6e4fc356f135a94b942cada667199dc7b78360405161069d9190610f79565b60405180910390a35050565b5f604051905090565b5f80fd5b5f80fd5b5f819050919050565b6106cc816106ba565b81146106d6575f80fd5b50565b5f813590506106e7816106c3565b92915050565b5f60208284031215610702576107016106b2565b5b5f61070f848285016106d9565b91505092915050565b610721816106ba565b82525050565b5f60208201905061073a5f830184610718565b92915050565b5f73ffffffffffffffffffffffffffffffffffffffff82169050919050565b5f61076982610740565b9050919050565b6107798161075f565b8114610783575f80fd5b50565b5f8135905061079481610770565b92915050565b5f80604083850312156107b0576107af6106b2565b5b5f6107bd858286016106d9565b92505060206107ce85828601610786565b9150509250929050565b5f81519050919050565b5f82825260208201905092915050565b5f5b8381101561080f5780820151818401526020810190506107f4565b5f8484015250505050565b5f601f19601f8301169050919050565b5f610834826107d8565b61083e81856107e2565b935061084e8185602086016107f2565b6108578161081a565b840191505092915050565b5f6040820190506108755f830185610718565b8181036020830152610887818461082a565b90509392505050565b5f80604083850312156108a6576108a56106b2565b5b5f6108b3858286016106d9565b92505060206108c4858286016106d9565b9150509250929050565b6108d78161075f565b82525050565b5f6020820190506108f05f8301846108ce565b92915050565b5f8115159050919050565b61090a816108f6565b82525050565b5f6020820190506109235f830184610901565b92915050565b5f80fd5b5f80fd5b7f4e487b71000000000000000000000000000000000000000000000000000000005f52604160045260245ffd5b6109678261081a565b810181811067ffffffffffffffff8211171561098657610985610931565b5b80604052505050565b5f6109986106a9565b90506109a4828261095e565b919050565b5f67ffffffffffffffff8211156109c3576109c2610931565b5b6109cc8261081a565b9050602081019050919050565b828183375f83830152505050565b5f6109f96109f4846109a9565b61098f565b905082815260208101848484011115610a1557610a1461092d565b5b610a208482856109d9565b509392505050565b5f82601f830112610a3c57610a3b610929565b5b8135610a4c8482602086016109e7565b91505092915050565b5f8060408385031215610a6b57610a6a6106b2565b5b5f610a78858286016106d9565b925050602083013567ffffffffffffffff811115610a9957610a986106b6565b5b610aa585828601610a28565b9150509250929050565b7f4e487b71000000000000000000000000000000000000000000000000000000005f52603260045260245ffd5b7f4e487b71000000000000000000000000000000000000000000000000000000005f52601160045260245ffd5b5f610b13826106ba565b9150610b1e836106ba565b9250828201905080821115610b3657610b35610adc565b5b92915050565b5f610b46826106ba565b91507fffffffffffffffffffffffffffffffffffffffffffffffffffffffffffffffff8203610b7857610b77610adc565b5b600182019050919050565b7f4e487b71000000000000000000000000000000000000000000000000000000005f52601260045260245ffd5b5f610bba826106ba565b9150610bc5836106ba565b925082610bd557610bd4610b83565b5b828204905092915050565b7f4e487b71000000000000000000000000000000000000000000000000000000005f52602260045260245ffd5b5f6002820490506001821680610c2457607f821691505b602082108103610c3757610c36610be0565b5b50919050565b7f526174696e672073686f756c64206265206265747765656e203120616e6420355f82015250565b5f610c716020836107e2565b9150610c7c82610c3d565b602082019050919050565b5f6020820190508181035f830152610c9e81610c65565b9050919050565b7f557365722068617320616c7265616479207261746564207468697320736f6e675f82015250565b5f610cd96020836107e2565b9150610ce482610ca5565b602082019050919050565b5f6020820190508181035f830152610d0681610ccd565b9050919050565b5f819050815f5260205f209050919050565b5f6020601f8301049050919050565b5f82821b905092915050565b5f60088302610d697fffffffffffffffffffffffffffffffffffffffffffffffffffffffffffffffff82610d2e565b610d738683610d2e565b95508019841693508086168417925050509392505050565b5f819050919050565b5f610dae610da9610da4846106ba565b610d8b565b6106ba565b9050919050565b5f819050919050565b610dc783610d94565b610ddb610dd382610db5565b848454610d3a565b825550505050565b5f90565b610def610de3565b610dfa818484610dbe565b505050565b5b81811015610e1d57610e125f82610de7565b600181019050610e00565b5050565b601f821115610e6257610e3381610d0d565b610e3c84610d1f565b81016020851015610e4b578190505b610e5f610e5785610d1f565b830182610dff565b50505b505050565b5f82821c905092915050565b5f610e825f1984600802610e67565b1980831691505092915050565b5f610e9a8383610e73565b9150826002028217905092915050565b610eb3826107d8565b67ffffffffffffffff811115610ecc57610ecb610931565b5b610ed68254610c0d565b610ee1828285610e21565b5f60209050601f831160018114610f12575f8415610f00578287015190505b610f0a8582610e8f565b865550610f71565b601f198416610f2086610d0d565b5f5b82811015610f4757848901518255600182019150602085019450602081019050610f22565b86831015610f645784890151610f60601f891682610e73565b8355505b6001600288020188555050505b505050505050565b5f6020820190508181035f830152610f91818461082a565b90509291505056fea264697066735822122043d32e751c2840280371b10fda9ed04993cd6316d43e53ee76eabe46aad0b19764736f6c63430008150033",
  "immutableReferences": {},
  "source": "//GPL 3 (general public license version 3) is a copyleft license\r\n//meaning that any copy or modification of the original code must also be released under the GPL v3\r\n//Copyleft is a general method for making a program (or other work) free //read more about copyleft: https://www.gnu.org/licenses/copyleft.en.html\r\n//SPDX-License-Identifier: GPL-3.0\r\n//This specifies the compiler version\r\npragma solidity >=0.4.22<0.9.0;\r\n\r\ncontract SongRatingContract {\r\n    struct Rating {\r\n        uint256 rating;\r\n        string feedback;\r\n    }\r\n    \r\n    mapping(uint256 => mapping(address => Rating)) public ratings;\r\n    mapping(uint256 => mapping(address => bool)) public hasRated;\r\n    mapping(uint256 => address[]) public songRaters;\r\n    \r\n    event SongRated(uint256 indexed songId, address indexed user, uint256 rating);\r\n    event FeedbackProvided(uint256 indexed songId, address indexed user, string feedback);\r\n    \r\n    function rateSong(uint256 songId, uint256 rating) public {\r\n        songRaters[songId].push(msg.sender);\r\n        require(rating >= 1 && rating <= 5, \"Rating should be between 1 and 5\");\r\n        require(!hasRated[songId][msg.sender], \"User has already rated this song\");\r\n        \r\n        ratings[songId][msg.sender].rating = rating;\r\n        hasRated[songId][msg.sender] = true;\r\n        \r\n        emit SongRated(songId, msg.sender, rating);\r\n    }\r\n    \r\n    function provideFeedback(uint256 songId, string memory feedback) public {\r\n        ratings[songId][msg.sender].feedback = feedback;\r\n        \r\n        emit FeedbackProvided(songId, msg.sender, feedback);\r\n    }\r\n    \r\n    function calculateAverageRating(uint256 songId) public view returns (uint256) {\r\n        uint256 totalRating = 0;\r\n        uint256 count = 0;\r\n\r\n        address[] storage raters = songRaters[songId];\r\n\r\n        for (uint256 i = 0; i < raters.length; i++) {\r\n            Rating storage rating = ratings[songId][raters[i]];\r\n            if (rating.rating > 0) {\r\n                totalRating += rating.rating;\r\n                count++;\r\n            }\r\n        }\r\n\r\n        if (count > 0) {\r\n            return totalRating / count;\r\n        } else {\r\n            return 0;\r\n        }\r\n    }\r\n}",
  "sourcePath": "C:\\Users\\Hunter\\TruffleProjects\\finalproject\\song-rating\\contracts\\SongRatingContract.sol",
  "compiler": {
    "name": "solc",
    "version": "0.8.21+commit.d9974bed.Emscripten.clang"
  },
  "schemaVersion": "3.4.16",
  "updatedAt": "2023-12-02T19:32:38.240Z",
  "devdoc": {
    "kind": "dev",
    "methods": {},
    "version": 1
  },
  "userdoc": {
    "kind": "user",
    "methods": {},
    "version": 1
  }
}